S01200004C6F636B65725F6170702E7372656312
S11300000C942A000C9447000C9447000C9447006D
S11300100C9447000C9447000C9447000C94470040
S11300200C9447000C9447000C9447000C94470030
S11300300C9447000C9447000C9447000C94470020
S11300400C9447000C9447000C9447000C94470010
S11300500C94470011241FBECFE5D8E0DEBFCDBF0E
S113006010E0A0E6B0E0E6E8F8E002C005900D92EA
S1130070AC3EB107D9F710E0ACEEB0E001C01D9280
S1130080AC3EB107E1F70E9417030C9441040C94B1
S113009000008A988B988C988D98BC9ABD9ABE9AC9
S11300A0BF9A0895E0E088B38F7088BBEE2321F4F3
S11300B088B3806E88BB0CC0E13021F488B3806DB6
S11300C088BB0BC0E23021F488B3806B88BB05C0C9
S11300D0E33019F488B3806788BB80B382FD09C01C
S11300E0F0E0EE0FFF1FEE0FFF1FE05AFF4F80817D
S11300F0089580B383FD09C0F0E0EE0FFF1FEE0FFB
S1130100FF1FE05AFF4F8181089580B384FD09C029
S1130110F0E0EE0FFF1FEE0FFF1FE05AFF4F82814A
S1130120089580B385FD09C0F0E0EE0FFF1FEE0FC8
S1130130FF1FE05AFF4F838108958FE39CE90197E5
S1130140F1F700C00000EF5FE43009F0ACCF8FEFAF
S11301500895D99884FF02C0DB9A01C0DB9885FF1B
S113016002C0DC9A01C0DC9886FF02C0DD9A01C09F
S1130170DD98882314F4DE9A01C0DE98DA9AEFE958
S1130180FFE03197F1F700C00000DA98EFE9FFE0F3
S11301903197F1F700C0000080FF02C0DB9A01C074
S11301A0DB9881FF02C0DC9A01C0DC9882FF02C0A8
S11301B0DD9A01C0DD9883FF02C0DE9A01C0DE989B
S11301C0DA9A8FE99FE00197F1F700C00000DA980E
S11301D0EFE9FFE03197F1F700C000000895D99AE4
S11301E084FF02C0DB9A01C0DB9885FF02C0DC9A61
S11301F001C0DC9886FF02C0DD9A01C0DD98882327
S113020014F4DE9A01C0DE98DA9AEFE9FFE0319740
S1130210F1F700C00000DA98EFE9FFE03197F1F759
S113022000C0000080FF02C0DB9A01C0DB9881FFA0
S113023002C0DC9A01C0DC9882FF02C0DD9A01C0D2
S1130240DD9883FF02C0DE9A01C0DE98DA9A8FE956
S11302509FE00197F1F700C00000DA98EFE9FFE0B2
S11302603197F1F700C0000008958AB38E678ABB06
S113027083E00E94EF008FE79EE30197F1F700C04F
S1130280000083E00E94EF00AFE7BEE31197F1F7AF
S113029000C0000083E00E94EF008FE79EE3019717
S11302A0F1F700C0000082E00E94A90088E20E94E9
S11302B0A90088E00E94A90081E00E94A90086E0CC
S11302C00E94A9008CE00E94A9008FEF99EFA0E0A2
S11302D081509040A040E1F700C0000008950F93C2
S11302E01F93CF938C01FC018081882351F0C0E0DF
S11302F00E94EF00CF5FF801EC0FF11D808188238D
S1130300B9F7CF911F910F9108958F929F92AF9259
S1130310BF92EF92FF921F93CF93DF93CDB7DEB7D7
S11303202A970FB6F894DEBF0FBECDBFDC01CB0118
S1130330AE014F5F5F4F2AE0FA0111922A95E9F767
S11303400097A105B10521F480E30E94EF0038C0B5
S113035010E00F2EFAE08F2EF0E09F2EF0E0AF2E8B
S1130360F0E0BF2EF02DE12EFF24E7FCF09421E015
S113037030E02C0F3D1FE20EF31EBC01CD01A501A0
S113038094010E941F04605DF7016083822F932F04
S1130390A42FB52F1F5F0097A105B10521F71150B8
S11303A07AF0E12FFF27E7FDF09521E030E02C0FF4
S11303B03D1FE20FF31F80810E94EF00115088F768
S11303C02A960FB6F894DEBF0FBECDBFDF91CF9152
S11303D01F91FF90EF90BF90AF909F908F900895E2
S11303E0882329F0813021F4962F905C01C0962F48
S11303F0892F80680E94A900089581E00E94A900C5
S11304008FE99FE00197F1F700C000000895CF92B3
S1130410DF92EF92FF920F931F93CF93DF936C01C0
S11304200E94FD0180E090E060E070E00E94F00135
S113043080E790E00E946F01EE240E945200182F82
S11304408F3FD9F3C82FDD27C7FDD0950E945200F6
S11304508C179D07D9F381E090E06E2D70E00E9427
S1130460F0018C2F9D2F0E94EF00F601EE0DF11D7F
S11304701083E39483E08E1500F78FEF93EDA0E3F0
S113048081509040A040E1F700C00000DF91CF917F
S11304901F910F91FF90EF90DF90CF9008958F926E
S11304A09F92AF92BF92CF92DF92EF92FF920F93FF
S11304B01F93CF93DF93D62EC72EE82EF92EC62F87
S11304C0D72F8E010C5F1F4FAA24BB24A3940F2E99
S11304D0F2E88F2EF0E09F2EF02DD7019D917D0143
S11304E089919817E1F0B092EB00A092EA000E9483
S11304F0FD0180E090E060E070E00E94F001C40142
S11305000E946F018FEF93EDA0E381509040A040D3
S1130510E1F700C000008D2D9C2D0E940702C0173A
S1130520D107D9F60E94FD0180E090E060E070E020
S11305300E94F0018DE890E00E946F018FEF93ED2F
S1130540A0E381509040A040E1F700C000000E9469
S1130550FD011092EB001092EA00DF91CF911F9100
S11305600F91FF90EF90DF90CF90BF90AF909F904E
S11305708F900895CF92DF92EF92FF920F931F9383
S1130580CF93DF936C010E94FD0180E090E060E076
S113059070E00E94F00188E990E00E946F01EE246F
S11305A00E945200182F8F3FD9F3C82FDD27C7FDB3
S11305B0D0950E9452008C179D07D9F381E090E0FA
S11305C06E2D70E00E94F0018C2F9D2F0E94EF0091
S11305D0F601EE0DF11D1083E39483E08E1500F710
S11305E0DF91CF911F910F91FF90EF90DF90CF900B
S11305F00895A62FB72FE82FF92F84E09D919193AA
S11306008150E1F70895FB01DC013C912081321710
S113061051F41196319683E02D919191291729F483
S11306208150D1F7089581E0089581E008952F92D3
S11306303F924F925F927F928F929F92AF92BF921E
S1130640CF92DF92EF92FF920F931F93CF93DF939A
S1130650CDB7DEB72C970FB6F894DEBF0FBECDBF73
S11306600E9435010E944900A09AA49AA898AC98C7
S113067080E389838A838B838C8389878A878B87AA
S11306808C87CE0105960E940702CE010196BE0119
S11306906B5F7F4F0E944F020F2EFFEC4F2EF0E056
S11306A05F2EF02D0F2EF0EC2F2EF0E03F2EF02DCC
S11306B00F2EF1EECF2EF0E0DF2EF02D0F2EF6EA06
S11306C0AF2EF0E0BF2EF02DEE24E3940F2EF3EBCB
S11306D08F2EF0E09F2EF02D7724689474F890C04C
S11306E00E945200F82E8FEFF81609F489C00F2DDE
S11306F0112707FD10950E94520080179107D9F326
S113070093E3F91681F19F1544F0A1E3FA1669F019
S1130710B2E3FB1609F074C017C084E3F81641F184
S113072096E3F91609F06CC04BC00E94FD0180E00D
S113073090E060E070E00E94F001C5010E946F014A
S113074085B38E2585BB5CC00E94FD0180E090E0EE
S113075060E070E00E94F001C4010E946F0185B363
S1130760872585BB4DC0CE0109960E94BA0248C0B8
S1130770CE010196BE01675F7F4F0E940303882369
S113078099F0CE010196BE01675F7F4F0E94F90286
S11307900E94FD0180E090E060E070E00E94F001C2
S11307A0C1010E946F012CC00E94FD0180E090E015
S11307B060E070E00E94F001C2010E946F0120C05D
S11307C0AC980E94FD0180E090E060E070E00E943F
S11307D0F001C6010E946F018FEF93EDA0E38150F9
S11307E09040A040E1F700C00000CE0105960E94B1
S11307F00702CE010196BE016B5F7F4F0E944F023C
S11308008091EA00882309F46BCF80E090E02C9675
S11308100FB6F894DEBF0FBECDBFDF91CF911F910D
S11308200F91FF90EF90DF90CF90BF90AF909F908B
S11308308F907F905F904F903F902F900895A1E20A
S11308401A2EAA1BBB1BFD010DC0AA1FBB1FEE1F46
S1130850FF1FA217B307E407F50720F0A21BB30B91
S1130860E40BF50B661F771F881F991F1A9469F70D
S113087060957095809590959B01AC01BD01CF0169
S10908800895F894FFCF77
S11308863738392F3435362A3132332D43303D2B20
S1130896456E7465722050617373776F7264203A83
S11308A6200077726F6E67207061737300526967F8
S11308B668742070617373004368616E67652050C5
S11308C66173733A20003120697320707265737303
S11308D66564003220697320707265737365640001
S11308E66E65772070617373207361766564007337
S11308F66574206E657750617373206669727374CC
S10F0906004C6F636B656420210001004D
S9030000FC
